:100CEC008F308D31AF301530EF6014C281AF317E53
:100CFC0000120D80D2817FE87E03120D8080E522E8
:100D8000EF1FAA0670011E4A600A7D72AC051DECB9
:040D900060EE80F899
:010D9400223C
:1006110053656E64696E6720534D532E2E2E2E2E18
:100621000000204175746F6D6174656420534D53F2
:100631002042793A2047534D20626173656420500E
:1006410072657061696420456E65726779206D65B8
:100651007465722E002020534D532053454E542073
:100661002D2D3E3E00496E69742047534D203A209E
:10067100004F4B004641494C4544202100220D00CA
:100681003B0D0041540D004154440041542B434D56
:1006910047463D310D0041542B434D47533D2230D8
:1006A1000041542B434E4D493D322C322C322C30DB
:0406B1002C300D00DC
:100A1B008B308A3189327F01120E637BFF7A067924
:100A2B0011120C3FAB30AA31A932120BEF50257BC0
:100A3B00FF7A067922120BC5AB33AA34A935120BF8
:100A4B00C57BFF7A067923120BC57F1A120C18127D
:100A5B0000038003120E237FC0120E637BFF7A0606
:0C0A6B007956120C3F7FE87E03020D80DC
:100B96007F01120E637BFF7A067966120C3F120DF7
:100BA600D35017120D0C50127BFF7A067972120C75
:0F0BB6003F7FE87E03120D80D322120E23C3224D
:0E0E23007FC0120E637BFF7A067975020C3FCA
:100DD3007BFF7A067984120BC5120DE4BF4BFAD35D
:010DE30022ED
:100D0C007BFF7A06798C120BC5120DE4BF4BFA7B74
:100D1C00FF7A0679A2120BC5120DE4BF4BFAD3224F
:100BEF008B368A3789387BFF7A067997120BC5AB1C
:100BFF0036AA37A938120BC57BFF7A06797E120BFE
:090C0F00C5120DE4BF3EFAD32228
:10000300120DE4EF644B6003BF45F5BF4508120DC5
:06001300D34003120E238E
:0100190022C4
:100C64008B0F8A1089117BFF7A067988120BC5AB2A
:100C74000FAA10A911120BC57BFF7A067981120BFA
:030C8400C5D322B3
:050E5E00D290D29122A8
:0A0E4A00201003300F02D322C32250
:100DF500C291D2907F017E00120D80D291C20E2247
:100C87008F38D20EC210C20F309003209103D20FBB
:100C970022C2917F017E00120D80C290AF38120AE6
:020CA700CA225F
:100ACA008F20E4F539A20792917F017E00120D80F2
:100ADA00D2907F017E00120D80C290E52025E0F5BC
:100AEA00200539E539C3940840DBD2917F017E00A5
:100AFA00120D80D2907F017E00120D80309102D2B9
:0A0B0A0010C2907F0A7E00020D80E9
:100B5E008D328B33120C87AF32120ACA20101FAFA0
:100B6E00331533EF6018AB340536E536AA3570020F
:100B7E00053514F912001EFF120ACA3010E1120DCB
:080B8E00F57F017E00020D80DD
:020A77008F38B6
:100A7900E4F539D2907F017E00120D80A291920097
:100A8900E539C394075006E52025E0F520C2907F9B
:100A9900017E00120D800539E539C3940840D4E57B
:100AA90038B40104D2918002C291D2907F017E00B4
:100AB900120D80C290D2917F0A7E00120D80AF2064
:010AC900220A
:060B14008F318D328B339E
:100B1A00D291D290120C87AF32120ACAD291D290D5
:100B2A00E53104FF120C87201027E4F537E537C3B7
:100B3A009533501DC3E5339537FF120A77AB34AAB4
:100B4A0035A936853782758300EF12006405378030
:040B5A00DC020DF5B7
:0F0E14002020494E495449414C495A494E470004
:0A0D6A0054F0FFE5A0540F4FF5A070
:0C0D7400D2A37F057E00120D80C2A322D6
:050E6300C2A2020DBF58
:050E6800D2A2020DBF43
:100C3F008B368A378938AB36AA37A93812001E602F
:100C4F00130538E5387002053714F912001EFF122C
:050C5F000E6880E22296
:100D4C00C2A3C2A253A00F120E057F28120E637FFE
:0E0D5C000C120E637F06120E637F01020E63FF
:0F0E05007F33120E637F33120E637F32020E6350
:10095D007BFF7A0E7914120C3F7FC0120E63E4F503
:10096D00137514C0E4F512AF14120E637F2E120E20
:10097D0068E512C39408500FE51275F032A424C82F
:10098D00FFE435F0FE80047F197E00120D80AF1458
:10099D00120E637F20120E6805140512E512C39422
:1009AD001040C40513E513C3940240B57F01020E38
:0109BD0063D6
:100DBF008F39E539120D6AE539C4120D6A7F057E48
:040DCF0000020D8091
:100CA900EF1460070470097F8080027FC0120E6311
:100CB900E4F5307F20120E680530E530C39410400A
:010CC900F238
:010CCA002207
:0A06B5008E308F318B328A33893486
:1006BF008E378F38C3EE64809480500BC3E495312E
:1006CF00F531E49530F530E4F535F536AE30AF3130
:1006DF007C007D0A120086ED2430FFAB32AA33A9CD
:1006EF00340536E536AC357002053514F5828C834A
:1006FF00EF120064AE30AF317C007D0A1200868E9F
:10070F00308F31D3EF9400EE6480948050BEC3E5F8
:10071F003764809480501AAB32AA33A9340536E57A
:10072F0036AE357002053514F5828E83742D1200A6
:10073F0064AB32AA33A934853682853583E412003F
:04074F00640208ED4B
:0608ED008B398A3A893BB9
:1008F300E4F53EF53F120DAAEF24FFF541EE34FF78
:10090300F540C3E53F9541E5406480F8E53E6480EA
:10091300985046AB39AA3AA93B853F82853E83125C
:100923000037FF3395E0F53C8F3D85418285408359
:10093300120037853F82853E83120064854182859C
:100943004083E53D120064053FE53F7002053EE547
:0909530041154170AD154080A969
:01095C002278
:100D2C008F158D16AF151515EF6014C290AF167E8A
:100D3C0000120D80D2907F647E00120D8080E5221F
:10048B0020204C6F772042616C616E6365002020E9
:10049B005A65726F2042616C616E6365004D6573C6
:1004AB0073616765205265636569766564005265A3
:1004BB0063686172676520537563636573732E00A0
:1004CB00506F77657220526573756D6564004E6F62
:1004DB0074205665726966696564002054686566A8
:1004EB0074204F6363757265640020537973746570
:1004FB006D204C6F636B656421005072653A202050
:10050B002042616C3A005052455041494420454EBF
:10051B00204D4554455200496E6974204545505253
:10052B004F4D3A2000455252004F4B004E4557005D
:10053B003739373530303030303000596F757220E5
:10054B006163636F756E7420686173206265656E9D
:10055B00207375636365737366756C6C7920726554
:10056B00636861726765642E004C6F772062616C03
:10057B00616E63652C204B696E646C7920726563C8
:10058B00686172676520736F6F6E2E00506F7765B1
:10059B00722072656D6F76656420617320796F755B
:1005AB0072206163636F756E742062616C616E6340
:1005BB0065206973207A65726F2E00506F776572B4
:1005CB002074686566742066726F6D20796F757222
:1005DB00206D657465722E20506C656173652063A8
:1005EB006F6E74616374204B5054434C2E00524316
:1005FB0048313000524348333500524348393000BC
:06060B00313233343500EA
:0A0E3F00C10DC10CC10AC109C18B2D
:1002B600120CCBE4F52AF524E50DC3940550332042
:1002C6000D30C281D20D7533FF7534057535747BDB
:1002D600FF7A05793B120A1B120E317F01120CA917
:1002E6007BFF7A04798B120C3FD2817FD07E071276
:1002F6000D80E50D7038200C35D20C7D647F05121B
:100306000CECD2827533FF7534057535977BFF7A11
:1003160005793B120A1B120E317F01120CA97BFFD5
:100326007A047999120C3F7FD07E07120D80E599E9
:10033600643C60030203E7F523C298120DE4AE2382
:10034600052374252EF8EFF6BF3EF0E4F52A7F016B
:10035600120E637BFF7A0479A8120C3F7D647F023C
:10036600120CEC7F01120CA97FC0120E637B007A7F
:100376000079251209BEEF1424FD50046036804C26
:10038600EF75F00AA4250DF50DF50EE4F58A7BFF51
:100396007A0479B9120C3F7533FF75340575354605
:1003A6007BFF7A05793B120A1BC20CC20D20092578
:1003B600C28280217BFF7A0479CB120C3F7D647F59
:1003C60002120CECC282C209D28C80097BFF7A042D
:1003D60079D9120C3FC2987FE87E03120D80120E67
:1003E60031309802C298E58A6524600AC3E50E9505
:1003F6008AF50D858A24300A41C281C20AD209755E
:1004060033FF7534057535C67BFF7A05793B120ACD
:100416001B7FE87E03120D80D2817F01120E637B63
:10042600FF7A0479E6120C3F7FC0120E637BFF7AD7
:100436000479F5120C3FD282C28C200B030202BE55
:10044600C20B7F01120CA97BFF7A057905120C3FBE
:100456007500C4AF8A7E007B007A00792B1206B540
:100466007B007A00792B120C3FAF0D7E007B007A61
:1004760000792B1206B57500CB7B007A00792B121A
:050486000C3F0202BE64
:1009BE008B308A318932A801AC02AD037BFF7A05F8
:1009CE0079F9120244EF70037F0122A832AC31ADE7
:1009DE00307BFF7A0579FF120244EF70037F02220B
:1009EE00A832AC31AD307BFF7A067905120244EFA6
:1009FE0070037F0322A832AC31AD307BFF7A0679CB
:0D0A0E000B120244EF70037F04227F0022D0
:0E0E31007F01120E637BFF7A057911020C3FE0
:100CCB007D4B7F02120CEC120E5E120D95120D4C29
:100CDB00120000120753120B96120E31D28EC282E3
:010CEB0022E6
:100D9500758915758D4B758BFDE4F58CF58AD28CAF
:050DA500D2ABD2AF2229
:03001B0002087B5D
:04087B00C0E0C0D049
:10087F00758D4B758BFD0508E508C39402405A75BD
:10088F0008000509E50994324005750900D20BE50A
:10089F000914601314600714600D24037010C290C4
:1008AF0030090BC2818007D290300902D281200813
:1008BF000B858A0A750B00750C00D20830B31A0528
:1008CF000CE50C7002050BC3942CE50B9401400949
:0908DF00E50AB58A02D20AC2083A
:0508E800D0D0D0E03289
:100753007F01120E637BFF7A057922120C3F7534F9
:10076300007535007536307B01E4FD7FA0120B1454
:10077300120E4A50107BFF7A057930120C3F7FF43A
:100783007E01020D80E5307BFFB444247A05793481
:10079300120C3F7FF47E01120D8075340075350015
:1007A30075360D7B017D017FA0120B14850D0E2282
:1007B3007A057937120C3F7FF47E01120D80753074
:1007C30044750E05750D05753400753500753630A5
:1007D3007B01E4FD7FA0120B5E7534007535007557
:0B07E300360D7B017D017FA0120B5E34
:0107EE0022E8
:030000000207EF05
:0C07EF00787FE4F6D8FD758141020836E1
:10001E00BB010689828A83E0225002E722BBFE02E0
:09002E00E32289828A83E4932213
:10003700BB010CE58229F582E5833AF583E022507E
:1000470006E92582F8E622BBFE06E92582F8E222C8
:0D005700E58229F582E5833AF583E49322E2
:10006400F8BB010DE58229F582E5833AF583E8F0D2
:10007400225006E92582C8F622BBFE05E92582C87E
:02008400F22266
:10008600C2D5EC30E709B2D5E4C39DFDE49CFCEE95
:1000960030E715B2D5E4C39FFFE49EFE120261C3AA
:1000A600E49DFDE49CFC800312026130D507C3E4A5
:0600B6009FFFE49EFE2204
:100C1800EFB40A07740D120C23740A309811A899BE
:100C2800B8130CC2983098FDA899C298B811F6303C
:070C380099FDC299F5992214
:100BC50012001E601CFF09E970010AC0E0EAC0E0DE
:100BD500EBC0E0120C18D0E0FBD0E0FAD0E0F980D1
:0A0BE500DF7F0A120C18E4FEFF2265
:100DE40010110B120E54BF0D027F0A020C18AF171C
:010DF40022DC
:1000BC00E3F5F009E208B5F06D606B80F3E3F5F061
:1000CC0009E608B5F060605E80F387F009E608B5D4
:1000DC00F054605280F487F009E208B5F0486046AD
:1000EC0080F488828C8387F009E0A3B5F038603601
:1000FC0080F488828C8387F009E493A3B5F02760A1
:10010C002580F388828C83E3F5F009E0A3B5F01623
:10011C00601480F388828C83E3F5F009E493A3B533
:10012C00F004600280F20201E7808580E7808E8017
:10013C00D2803C8015806C807E809B80B5808B80CB
:10014C00A1804F8070803A0201FD89828A83ECFA8B
:10015C00E493F5F0A3C8C582C8CCC583CCE493A3C3
:10016C00C8C582C8CCC583CCB5F070606E80E189FF
:10017C00828A83E493F5F0A3E208B5F05E605C80BC
:10018C00F289828A83E0F5F0A3E608B5F04D604B66
:10019C0080F389828A83E0F5F0A3E208B5F03C6035
:1001AC003A80F389828A83E493F5F0A3E608B5F0EC
:1001BC002A602880F2805D89828A83ECFAE493F5C8
:1001CC00F0A3C8C582C8CCC583CCE0A3C8C582C87F
:1001DC00CCC583CCB5F004600280E27F00F845F01A
:1001EC00600EE863F0806480D395F01F40027F01BD
:1001FC002289828A83ECFAE0F5F0A3C8C582C8CCC8
:10020C00C583CCE0A3C8C582C8CCC583CCB5F0CB24
:10021C0060C980E389828A83ECFAE0F5F0A3C8C553
:10022C0082C8CCC583CCE493A3C8C582C8CCC58393
:10023C00CCB5F0A760A580E288F0ED2402B40400F0
:10024C005099F582EB2402B40400508F232345828D
:05025C00239001357341
:100DAA00E4FFFE12001E600C0FEF70010E09E970DD
:050DBA00F20A80EF22A7
:1007FB000202B6E493A3F8E493A34003F68001F25C
:10080B0008DFF48029E493A3F85407240CC8C333FE
:10081B00C4540F4420C8834004F456800146F6DFCD
:10082B00E4800B0102040810204080900E3FE47E10
:10083B00019360BCA3FF543F30E509541FFEE493C2
:10084B00A360010ECF54C025E060A840B8E493A389
:10085B00FAE493A3F8E493A3C8C582C8CAC583CAB4
:10086B00F0A3C8C582C8CAC583CADFE9DEE780BE6C
:010E490000A8
:10026100BC000BBE0029EF8DF084FFADF022E4CC81
:10027100F875F008EF2FFFEE33FEEC33FCEE9DEC4A
:10028100984005FCEE9DFE0FD5F0E9E4CEFD22ED90
:10029100F8F5F0EE8420D21CFEADF075F008EF2FDA
:1002A100FFED33FD4007985006D5F0F222C398FDCB
:0502B1000FD5F0EA2268
:0A0E54003098FDAF99C2987E00228D
:00000001FF
